{
    "contractName": "Assignment8",
    "abi": [
        {
            "inputs": [],
            "stateMutability": "nonpayable",
            "type": "constructor"
        },
        {
            "inputs": [
                {
                    "internalType": "address",
                    "name": "sender",
                    "type": "address"
                },
                {
                    "internalType": "uint256",
                    "name": "tokenId",
                    "type": "uint256"
                },
                {
                    "internalType": "address",
                    "name": "owner",
                    "type": "address"
                }
            ],
            "name": "ERC721IncorrectOwner",
            "type": "error"
        },
        {
            "inputs": [
                {
                    "internalType": "address",
                    "name": "operator",
                    "type": "address"
                },
                {
                    "internalType": "uint256",
                    "name": "tokenId",
                    "type": "uint256"
                }
            ],
            "name": "ERC721InsufficientApproval",
            "type": "error"
        },
        {
            "inputs": [
                {
                    "internalType": "address",
                    "name": "approver",
                    "type": "address"
                }
            ],
            "name": "ERC721InvalidApprover",
            "type": "error"
        },
        {
            "inputs": [
                {
                    "internalType": "address",
                    "name": "operator",
                    "type": "address"
                }
            ],
            "name": "ERC721InvalidOperator",
            "type": "error"
        },
        {
            "inputs": [
                {
                    "internalType": "address",
                    "name": "owner",
                    "type": "address"
                }
            ],
            "name": "ERC721InvalidOwner",
            "type": "error"
        },
        {
            "inputs": [
                {
                    "internalType": "address",
                    "name": "receiver",
                    "type": "address"
                }
            ],
            "name": "ERC721InvalidReceiver",
            "type": "error"
        },
        {
            "inputs": [
                {
                    "internalType": "address",
                    "name": "sender",
                    "type": "address"
                }
            ],
            "name": "ERC721InvalidSender",
            "type": "error"
        },
        {
            "inputs": [
                {
                    "internalType": "uint256",
                    "name": "tokenId",
                    "type": "uint256"
                }
            ],
            "name": "ERC721NonexistentToken",
            "type": "error"
        },
        {
            "inputs": [
                {
                    "internalType": "address",
                    "name": "owner",
                    "type": "address"
                }
            ],
            "name": "OwnableInvalidOwner",
            "type": "error"
        },
        {
            "inputs": [
                {
                    "internalType": "address",
                    "name": "account",
                    "type": "address"
                }
            ],
            "name": "OwnableUnauthorizedAccount",
            "type": "error"
        },
        {
            "anonymous": false,
            "inputs": [
                {
                    "indexed": true,
                    "internalType": "address",
                    "name": "owner",
                    "type": "address"
                },
                {
                    "indexed": true,
                    "internalType": "address",
                    "name": "approved",
                    "type": "address"
                },
                {
                    "indexed": true,
                    "internalType": "uint256",
                    "name": "tokenId",
                    "type": "uint256"
                }
            ],
            "name": "Approval",
            "type": "event"
        },
        {
            "anonymous": false,
            "inputs": [
                {
                    "indexed": true,
                    "internalType": "address",
                    "name": "owner",
                    "type": "address"
                },
                {
                    "indexed": true,
                    "internalType": "address",
                    "name": "operator",
                    "type": "address"
                },
                {
                    "indexed": false,
                    "internalType": "bool",
                    "name": "approved",
                    "type": "bool"
                }
            ],
            "name": "ApprovalForAll",
            "type": "event"
        },
        {
            "anonymous": false,
            "inputs": [
                {
                    "indexed": false,
                    "internalType": "uint256",
                    "name": "_fromTokenId",
                    "type": "uint256"
                },
                {
                    "indexed": false,
                    "internalType": "uint256",
                    "name": "_toTokenId",
                    "type": "uint256"
                }
            ],
            "name": "BatchMetadataUpdate",
            "type": "event"
        },
        {
            "anonymous": false,
            "inputs": [
                {
                    "indexed": false,
                    "internalType": "uint256",
                    "name": "_tokenId",
                    "type": "uint256"
                }
            ],
            "name": "MetadataUpdate",
            "type": "event"
        },
        {
            "anonymous": false,
            "inputs": [
                {
                    "indexed": true,
                    "internalType": "address",
                    "name": "previousOwner",
                    "type": "address"
                },
                {
                    "indexed": true,
                    "internalType": "address",
                    "name": "newOwner",
                    "type": "address"
                }
            ],
            "name": "OwnershipTransferred",
            "type": "event"
        },
        {
            "anonymous": false,
            "inputs": [
                {
                    "indexed": true,
                    "internalType": "address",
                    "name": "from",
                    "type": "address"
                },
                {
                    "indexed": true,
                    "internalType": "address",
                    "name": "to",
                    "type": "address"
                },
                {
                    "indexed": true,
                    "internalType": "uint256",
                    "name": "tokenId",
                    "type": "uint256"
                }
            ],
            "name": "Transfer",
            "type": "event"
        },
        {
            "inputs": [
                {
                    "internalType": "address",
                    "name": "to",
                    "type": "address"
                },
                {
                    "internalType": "uint256",
                    "name": "tokenId",
                    "type": "uint256"
                }
            ],
            "name": "approve",
            "outputs": [],
            "stateMutability": "nonpayable",
            "type": "function"
        },
        {
            "inputs": [
                {
                    "internalType": "address",
                    "name": "owner",
                    "type": "address"
                }
            ],
            "name": "balanceOf",
            "outputs": [
                {
                    "internalType": "uint256",
                    "name": "",
                    "type": "uint256"
                }
            ],
            "stateMutability": "view",
            "type": "function"
        },
        {
            "inputs": [
                {
                    "internalType": "uint256",
                    "name": "tokenId",
                    "type": "uint256"
                }
            ],
            "name": "getApproved",
            "outputs": [
                {
                    "internalType": "address",
                    "name": "",
                    "type": "address"
                }
            ],
            "stateMutability": "view",
            "type": "function"
        },
        {
            "inputs": [
                {
                    "internalType": "address",
                    "name": "owner",
                    "type": "address"
                },
                {
                    "internalType": "address",
                    "name": "operator",
                    "type": "address"
                }
            ],
            "name": "isApprovedForAll",
            "outputs": [
                {
                    "internalType": "bool",
                    "name": "",
                    "type": "bool"
                }
            ],
            "stateMutability": "view",
            "type": "function"
        },
        {
            "inputs": [
                {
                    "internalType": "string",
                    "name": "jsonURI",
                    "type": "string"
                }
            ],
            "name": "mintNFT",
            "outputs": [
                {
                    "internalType": "uint256",
                    "name": "",
                    "type": "uint256"
                }
            ],
            "stateMutability": "nonpayable",
            "type": "function"
        },
        {
            "inputs": [],
            "name": "name",
            "outputs": [
                {
                    "internalType": "string",
                    "name": "",
                    "type": "string"
                }
            ],
            "stateMutability": "view",
            "type": "function"
        },
        {
            "inputs": [],
            "name": "owner",
            "outputs": [
                {
                    "internalType": "address",
                    "name": "",
                    "type": "address"
                }
            ],
            "stateMutability": "view",
            "type": "function"
        },
        {
            "inputs": [
                {
                    "internalType": "uint256",
                    "name": "tokenId",
                    "type": "uint256"
                }
            ],
            "name": "ownerOf",
            "outputs": [
                {
                    "internalType": "address",
                    "name": "",
                    "type": "address"
                }
            ],
            "stateMutability": "view",
            "type": "function"
        },
        {
            "inputs": [],
            "name": "renounceOwnership",
            "outputs": [],
            "stateMutability": "nonpayable",
            "type": "function"
        },
        {
            "inputs": [
                {
                    "internalType": "address",
                    "name": "from",
                    "type": "address"
                },
                {
                    "internalType": "address",
                    "name": "to",
                    "type": "address"
                },
                {
                    "internalType": "uint256",
                    "name": "tokenId",
                    "type": "uint256"
                }
            ],
            "name": "safeTransferFrom",
            "outputs": [],
            "stateMutability": "nonpayable",
            "type": "function"
        },
        {
            "inputs": [
                {
                    "internalType": "address",
                    "name": "from",
                    "type": "address"
                },
                {
                    "internalType": "address",
                    "name": "to",
                    "type": "address"
                },
                {
                    "internalType": "uint256",
                    "name": "tokenId",
                    "type": "uint256"
                },
                {
                    "internalType": "bytes",
                    "name": "data",
                    "type": "bytes"
                }
            ],
            "name": "safeTransferFrom",
            "outputs": [],
            "stateMutability": "nonpayable",
            "type": "function"
        },
        {
            "inputs": [
                {
                    "internalType": "address",
                    "name": "operator",
                    "type": "address"
                },
                {
                    "internalType": "bool",
                    "name": "approved",
                    "type": "bool"
                }
            ],
            "name": "setApprovalForAll",
            "outputs": [],
            "stateMutability": "nonpayable",
            "type": "function"
        },
        {
            "inputs": [
                {
                    "internalType": "bytes4",
                    "name": "interfaceId",
                    "type": "bytes4"
                }
            ],
            "name": "supportsInterface",
            "outputs": [
                {
                    "internalType": "bool",
                    "name": "",
                    "type": "bool"
                }
            ],
            "stateMutability": "view",
            "type": "function"
        },
        {
            "inputs": [],
            "name": "symbol",
            "outputs": [
                {
                    "internalType": "string",
                    "name": "",
                    "type": "string"
                }
            ],
            "stateMutability": "view",
            "type": "function"
        },
        {
            "inputs": [
                {
                    "internalType": "uint256",
                    "name": "tokenId",
                    "type": "uint256"
                }
            ],
            "name": "tokenURI",
            "outputs": [
                {
                    "internalType": "string",
                    "name": "",
                    "type": "string"
                }
            ],
            "stateMutability": "view",
            "type": "function"
        },
        {
            "inputs": [
                {
                    "internalType": "address",
                    "name": "from",
                    "type": "address"
                },
                {
                    "internalType": "address",
                    "name": "to",
                    "type": "address"
                },
                {
                    "internalType": "uint256",
                    "name": "tokenId",
                    "type": "uint256"
                }
            ],
            "name": "transferFrom",
            "outputs": [],
            "stateMutability": "nonpayable",
            "type": "function"
        },
        {
            "inputs": [
                {
                    "internalType": "address",
                    "name": "newOwner",
                    "type": "address"
                }
            ],
            "name": "transferOwnership",
            "outputs": [],
            "stateMutability": "nonpayable",
            "type": "function"
        }
    ],
    "bytecode": "60806040523461036a57604080519081016001600160401b0381118282101761028057604090815260098252684d792045524337323160b81b602083015280519081016001600160401b038111828210176102805760405260038152620b460b60eb1b602082015281516001600160401b038111610280575f54600181811c91168015610360575b602082101461026257601f81116102fe575b50602092601f821160011461029f57928192935f92610294575b50508160011b915f199060031b1c1916175f555b80516001600160401b03811161028057600154600181811c91168015610276575b602082101461026257601f81116101ff575b50602091601f821160011461019f579181925f92610194575b50508160011b915f199060031b1c1916176001555b33156101815760078054336001600160a01b03198216811790925560405191906001600160a01b03167f8be0079c531659141344cd1fd0a4f28419497f9722a3daafe3b4186f6b6457e05f80a3610f4a908161036f8239f35b631e4fbdf760e01b5f525f60045260245ffd5b015190505f80610113565b601f1982169260015f52805f20915f5b8581106101e7575083600195106101cf575b505050811b01600155610128565b01515f1960f88460031b161c191690555f80806101c1565b919260206001819286850151815501940192016101af565b60015f527fb10e2d527612073b26eecdfd717e6a320cf44b4afac2b0732d9fcbe2b7fa0cf6601f830160051c81019160208410610258575b601f0160051c01905b81811061024d57506100fa565b5f8155600101610240565b9091508190610237565b634e487b7160e01b5f52602260045260245ffd5b90607f16906100e8565b634e487b7160e01b5f52604160045260245ffd5b015190505f806100b3565b601f198216935f8052805f20915f5b8681106102e657508360019596106102ce575b505050811b015f556100c7565b01515f1960f88460031b161c191690555f80806102c1565b919260206001819286850151815501940192016102ae565b5f80527f290decd9548b62a8d60345a988386fc84ba6bc95484008f6362f93160ef3e563601f830160051c81019160208410610356575b601f0160051c01905b81811061034b5750610099565b5f815560010161033e565b9091508190610335565b90607f1690610087565b5f80fdfe6080806040526004361015610012575f80fd5b5f3560e01c90816301ffc9a71461096c5750806306fdde03146108ca578063081812fc1461088e578063095ea7b3146107a457806323b872dd1461078d57806342842e0e146107645780636352211e1461073457806370a08231146106e3578063715018a6146106885780638da5cb5b1461066057806395d89b4114610596578063a22cb465146104fb578063b88d4fde14610499578063c87b56dd14610462578063e985e9c51461040b578063f2fde38b146103855763fb37e883146100d7575f80fd5b346103815760203660031901126103815760043567ffffffffffffffff8111610381573660238201121561038157610119903690602481600401359101610ab9565b610121610eed565b600854331561036e575f818152600260205260409020546001600160a01b0316801515908161033b575b335f818152600360209081526040808320805460010190558683526002909152812080546001600160a01b0319168317905584919083907fddf252ad1be2c89b69c2b068fc378daa952ba7f163c4a11628f55a4df523b3ef9080a45061032857805f52600660205260405f20825167ffffffffffffffff8111610314576101d28254610aef565b601f81116102cf575b506020601f821160011461026e57819293945f92610263575b50508160011b915f199060031b1c19161790555b7ff8e1a15aba9398e019f0b49df1a4fde98ee17ae345cb5f6b5e2c27f5033e8ce76020604051838152a1600854905f19821461024f57600160209201600855604051908152f35b634e487b7160e01b5f52601160045260245ffd5b015190505f806101f4565b601f19821690835f52805f20915f5b8181106102b75750958360019596971061029f575b505050811b019055610208565b01515f1960f88460031b161c191690555f8080610292565b9192602060018192868b01518155019401920161027d565b825f5260205f20601f830160051c8101916020841061030a575b601f0160051c01905b8181106102ff57506101db565b5f81556001016102f2565b90915081906102e9565b634e487b7160e01b5f52604160045260245ffd5b6339e3563760e11b5f525f60045260245ffd5b5f83815260046020526040902080546001600160a01b0319169055805f52600360205260405f205f19815401905561014b565b633250574960e11b5f525f60045260245ffd5b5f80fd5b346103815760203660031901126103815761039e610a15565b6103a6610eed565b6001600160a01b031680156103f857600780546001600160a01b0319811683179091556001600160a01b03167f8be0079c531659141344cd1fd0a4f28419497f9722a3daafe3b4186f6b6457e05f80a3005b631e4fbdf760e01b5f525f60045260245ffd5b3461038157604036600319011261038157610424610a15565b61042c610a2b565b9060018060a01b03165f52600560205260405f209060018060a01b03165f52602052602060ff60405f2054166040519015158152f35b3461038157602036600319011261038157610495610481600435610df4565b6040519182916020835260208301906109f1565b0390f35b34610381576080366003190112610381576104b2610a15565b6104ba610a2b565b6064359167ffffffffffffffff83116103815736602384011215610381576104ef6104f9933690602481600401359101610ab9565b9160443591610cb4565b005b3461038157604036600319011261038157610514610a15565b60243590811515809203610381576001600160a01b031690811561058357335f52600560205260405f20825f5260205260405f2060ff1981541660ff83161790556040519081527f17307eab39ab6107e8899845ad3d59bd9653f200f220920489ca2b5937696c3160203392a3005b50630b61174360e31b5f5260045260245ffd5b34610381575f366003190112610381576040515f6001546105b681610aef565b808452906001811690811561063c57506001146105de575b6104958361048181850382610a7b565b91905060015f527fb10e2d527612073b26eecdfd717e6a320cf44b4afac2b0732d9fcbe2b7fa0cf6915f905b808210610622575090915081016020016104816105ce565b91926001816020925483858801015201910190929161060a565b60ff191660208086019190915291151560051b8401909101915061048190506105ce565b34610381575f366003190112610381576007546040516001600160a01b039091168152602090f35b34610381575f366003190112610381576106a0610eed565b600780546001600160a01b031981169091555f906001600160a01b03167f8be0079c531659141344cd1fd0a4f28419497f9722a3daafe3b4186f6b6457e08280a3005b34610381576020366003190112610381576001600160a01b03610704610a15565b168015610721575f526003602052602060405f2054604051908152f35b6322718ad960e21b5f525f60045260245ffd5b34610381576020366003190112610381576020610752600435610eb9565b6040516001600160a01b039091168152f35b34610381576104f961077536610a41565b9060405192610785602085610a7b565b5f8452610cb4565b34610381576104f961079e36610a41565b91610b27565b34610381576040366003190112610381576107bd610a15565b6024356107c981610eb9565b3315158061087b575b8061084e575b61083b5781906001600160a01b0384811691167f8c5be1e5ebec7d5bd14f71427d1e84f3dd0314c0f7b2291e5b200ac8c7c3b9255f80a45f90815260046020526040902080546001600160a01b0319166001600160a01b03909216919091179055005b63a9fbf51f60e01b5f523360045260245ffd5b506001600160a01b0381165f90815260056020908152604080832033845290915290205460ff16156107d8565b506001600160a01b0381163314156107d2565b34610381576020366003190112610381576004356108ab81610eb9565b505f526004602052602060018060a01b0360405f205416604051908152f35b34610381575f366003190112610381576040515f5f546108e981610aef565b808452906001811690811561063c5750600114610910576104958361048181850382610a7b565b5f8080527f290decd9548b62a8d60345a988386fc84ba6bc95484008f6362f93160ef3e563939250905b808210610952575090915081016020016104816105ce565b91926001816020925483858801015201910190929161093a565b34610381576020366003190112610381576004359063ffffffff60e01b821680920361038157602091632483248360e11b81149081156109ae575b5015158152f35b6380ac58cd60e01b8114915081156109e0575b81156109cf575b50836109a7565b6301ffc9a760e01b149050836109c8565b635b5e139f60e01b811491506109c1565b805180835260209291819084018484015e5f828201840152601f01601f1916010190565b600435906001600160a01b038216820361038157565b602435906001600160a01b038216820361038157565b6060906003190112610381576004356001600160a01b038116810361038157906024356001600160a01b0381168103610381579060443590565b90601f8019910116810190811067ffffffffffffffff82111761031457604052565b67ffffffffffffffff811161031457601f01601f191660200190565b929192610ac582610a9d565b91610ad36040519384610a7b565b829481845281830111610381578281602093845f960137010152565b90600182811c92168015610b1d575b6020831014610b0957565b634e487b7160e01b5f52602260045260245ffd5b91607f1691610afe565b6001600160a01b039091169190821561036e575f828152600260205260409020546001600160a01b031692829033151580610c1f575b5084610bec575b805f52600360205260405f2060018154019055815f52600260205260405f20816bffffffffffffffffffffffff60a01b825416179055847fddf252ad1be2c89b69c2b068fc378daa952ba7f163c4a11628f55a4df523b3ef5f80a46001600160a01b0316808303610bd457505050565b6364283d7b60e01b5f5260045260245260445260645ffd5b5f82815260046020526040902080546001600160a01b0319169055845f52600360205260405f205f198154019055610b64565b90915080610c63575b15610c355782905f610b5d565b8284610c4d57637e27328960e01b5f5260045260245ffd5b63177e802f60e01b5f523360045260245260445ffd5b503384148015610c92575b80610c2857505f838152600460205260409020546001600160a01b03163314610c28565b505f84815260056020908152604080832033845290915290205460ff16610c6e565b9291610cc1818386610b27565b813b610cce575b50505050565b604051630a85bd0160e11b81523360048201526001600160a01b0394851660248201526044810191909152608060648201529216919060209082908190610d199060848301906109f1565b03815f865af15f9181610daf575b50610d7c57503d15610d75573d610d3d81610a9d565b90610d4b6040519283610a7b565b81523d5f602083013e5b80519081610d705782633250574960e11b5f5260045260245ffd5b602001fd5b6060610d55565b6001600160e01b03191663757a42ff60e11b01610d9d57505f808080610cc8565b633250574960e11b5f5260045260245ffd5b9091506020813d602011610dec575b81610dcb60209383610a7b565b8101031261038157516001600160e01b03198116810361038157905f610d27565b3d9150610dbe565b610dfd81610eb9565b505f52600660205260405f2060405190815f825492610e1b84610aef565b8084529360018116908115610e975750600114610e53575b50610e4092500382610a7b565b5f604051610e4f602082610a7b565b5290565b90505f9291925260205f20905f915b818310610e7b575050906020610e40928201015f610e33565b6020919350806001915483858801015201910190918392610e62565b905060209250610e4094915060ff191682840152151560051b8201015f610e33565b5f818152600260205260409020546001600160a01b0316908115610edb575090565b637e27328960e01b5f5260045260245ffd5b6007546001600160a01b03163303610f0157565b63118cdaa760e01b5f523360045260245ffdfea264697066735822122043cd42ac48641e2540ba38d23878aacc87f20dfae74ec0097b589d23d22c7fb364736f6c634300081d0033",
    "sourcePath": "e:/{zeroXcoder} My trip/BlOcK_ChAiN/Assignment/bootcamp25-assignment8-ZeroXcode0101/src/Assignment8.sol",
    "compiler": {
        "name": "solc",
        "version": "0.8.29+commit.ab55807c"
    },
    "functionHashes": {
        "approve(address,uint256)": "095ea7b3",
        "balanceOf(address)": "70a08231",
        "getApproved(uint256)": "081812fc",
        "isApprovedForAll(address,address)": "e985e9c5",
        "mintNFT(string)": "fb37e883",
        "name()": "06fdde03",
        "owner()": "8da5cb5b",
        "ownerOf(uint256)": "6352211e",
        "renounceOwnership()": "715018a6",
        "safeTransferFrom(address,address,uint256)": "42842e0e",
        "safeTransferFrom(address,address,uint256,bytes)": "b88d4fde",
        "setApprovalForAll(address,bool)": "a22cb465",
        "supportsInterface(bytes4)": "01ffc9a7",
        "symbol()": "95d89b41",
        "tokenURI(uint256)": "c87b56dd",
        "transferFrom(address,address,uint256)": "23b872dd",
        "transferOwnership(address)": "f2fde38b"
    },
    "gasEstimates": {
        "creation": {
            "codeDepositCost": "782800",
            "executionCost": "infinite",
            "totalCost": "infinite"
        },
        "external": {
            "approve(address,uint256)": "31146",
            "balanceOf(address)": "2579",
            "getApproved(uint256)": "4625",
            "isApprovedForAll(address,address)": "2881",
            "mintNFT(string)": "infinite",
            "name()": "infinite",
            "owner()": "2478",
            "ownerOf(uint256)": "2550",
            "renounceOwnership()": "28236",
            "safeTransferFrom(address,address,uint256)": "infinite",
            "safeTransferFrom(address,address,uint256,bytes)": "infinite",
            "setApprovalForAll(address,bool)": "26664",
            "supportsInterface(bytes4)": "379",
            "symbol()": "infinite",
            "tokenURI(uint256)": "infinite",
            "transferFrom(address,address,uint256)": "106345",
            "transferOwnership(address)": "28501"
        }
    }
}